:03000000020B8868
:0C0B8800787FE4F6D8FD7581120209B4F4
:100A9400484F532047454C44494E495A0049442045
:100AA4004E4F20474952494E495A003035313300A0
:100AB40041746971204D61796172006979692064BA
:100AC4006572736C6572004B617969746C616E64F4
:100AD400696E697A0030353137004D6F7274657A0A
:100AE4006120596F7365667900303531360052657F
:100AF4007A610059414E4C49532047495244494E6A
:030B0400495A004B
:060B0700D2A17F0A7E006E
:100B0D00E4FDFCC3ED9FEE6480F8EC648098501E0C
:100B1D00E4FBFAC3EB9FEE6480F8EA64809850071B
:0E0B2D000BBB00010A80EC0DBD00010C80D551
:010B3B002297
:040B7A007F017E0079
:0A0B7E008F90C2A0120B07C2A12243
:0A0B94008F90D2A0120B07C2A1221D
:100B3C008B108A118912AB10AA11A912120800FF8E
:100B4C00601B3395E0FE120B947F647E00120B0D3C
:0E0B5C0074012512F512E43511F51180D9222D
:1009B4007F387E00120B7E7F0E7E00120B7E120BA0
:1009C4007A7F807E00120B7E120B6A7BFF7A0A7993
:1009D40094120B3C7FC07E00120B7E7BFF7A0A7957
:1009E400A1120B3C120B7AE4FFFE0FBF00010EEFC5
:1009F40064044E70F53098FD74082FF8A699C298D7
:100A040078087C007D007BFF7A0A79AF120997EFA2
:100A14003395E04F70087BFF7A0A79B4803A7808FE
:100A24007C007D007BFF7A0A79D9120997EF339510
:100A3400E04F70087BFF7A0A79DE801C78087C001E
:100A44007D007BFF7A0A79ED120997EF3395E04F29
:100A5400702F7BFF7A0A79F2120B3C120B7A7BFF20
:100A64007A0A79BF120B3C7FC07E00120B7E7BFF9B
:100A74007A0A79CB120B3C7FC87E00120B0D020957
:100A8400EB7BFF7A0A79F7120B3C120B7A0209EB23
:100B6A00D2AFD2AC758920759850758DFDD28E2280
:10080000BB010689828A83E0225002E722BBFE02F6
:09081000E32289828A83E4932229
:10081900E3F5F009E208B5F06D606B80F3E3F5F0FC
:1008290009E608B5F060605E80F387F009E608B56F
:10083900F054605280F487F009E208B5F048604648
:1008490080F488828C8387F009E0A3B5F03860369C
:1008590080F488828C8387F009E493A3B5F027603C
:100869002580F388828C83E3F5F009E0A3B5F016BF
:10087900601480F388828C83E3F5F009E493A3B5CF
:10088900F004600280F2020944808580E7808E804E
:10089900D2803C8015806C807E809B80B5808B8067
:1008A900A1804F8070803A02095089828A83ECFACC
:1008B900E493F5F0A3C8C582C8CCC583CCE493A35F
:1008C900C8C582C8CCC583CCB5F070606E80E1899B
:1008D900828A83E493F5F0A3E208B5F05E605C8058
:1008E900F289828A83E0F5F0A3E608B5F04D604B02
:1008F90080F389828A83E0F5F0A3E208B5F03C60D1
:100909003A80F389828A83E493F5F0A3E608B5F087
:100919002A602880F2805389828A83ECFAE493F56D
:10092900F0A3C8C582C8CCC583CCE0A3C8C582C81A
:10093900CCC583CCB5F004600280E27FFFB5F0023C
:100949000F2240027F012289828A83ECFAE0F5F0C6
:10095900A3C8C582C8CCC583CCE0A3C8C582C8CC0E
:10096900C583CCB5F0D560D380E389828A83ECFA5C
:10097900E0F5F0A3C8C582C8CCC583CCE493A3C86D
:10098900C582C8CCC583CCB5F0B160AF80E288F030
:10099900ED2402B4040050A3F582EB2402B4040050
:0B09A90050992323458223900892738D
:00000001FF
